:0200030003AF49
:02000500037482
:02000700039262
:10031E0020322101020408102040808182848890BE
:10032E00A0C0C1C2C4C8D0E0E1E2E4E8F0F1F2F44A
:10033E00F8F9FAFCFDFEFFFF00FF000000000000D0
:05034E000000000000AA
:10035400E4FDFCC3ED9FEC9E5015E4FBFA0BBB00DF
:0F036400010AEB64784A70F50DBD00010C80E4CE
:010373002267
:0F03AF007F0112000E7F0212000EE4FF02009782
:10037400900000AF8274212FF8E6F4F5A07F327E5E
:0D03840000120354A3E5826432458370E645
:010391002249
:10039200900000AF8274212FF8E6F5907F327E0044
:0C03A200120354A3E5826432458370E727
:0103AE00222C
:10000E00EFD3940240037FFF22740F2F2FF8E620C8
:10001E00E5F4C2AFE64430F6D2AFAE0CEEC39F505D
:10002E00210E74142EF8E6F908E618BE020274FFCB
:10003E00FDED69600909E71919F7090980F316162C
:10004E0080DAEED39F400405810581EED39F4022D6
:10005E0074142EF808E6F9EEB50C02A981180606FE
:10006E00E6FDED6960091919E70909F71980F31E14
:10007E0080D9EF2414F8E604F8EF2F0490000393D0
:09008E00F608EF2F93F67F002223
:10009700EFD3940240037FFF22EF23240FF8E630CB
:1000A700E5F4C2AFE6548CF6D2AFE50CB5070A7497
:1000B700142FF8E6F58102019B502E74152FF8E6F0
:1000C700BF020274FFFD18E6F974142FF8FBE6FC73
:1000D700E96C6008A805E7F61D1980F4A803A605D2
:1000E7001FE50CB507E37F002274152FF8E6FD180E
:1000F70086010F74142FF8A601088604E50CB507CE
:1001070002AC81ED6C60080D09A805E6F780F4E5FF
:090117000CB507DE89817F00228E
:03000B00020125CA
:10012000C2AF80FE3212012485D00B75D008AAE040
:10013000C28CE58A24F7F58AE58C34D8F58CD28C0C
:10014000EC2415F8E6BC020274FFC39581B41400D8
:1001500040CE7903780E16E608700BC2AFE630E1A8
:10016000034418F6D2AF08D9EDEA8BD03000012253
:10017000D50DFCC0E0C0D0C0F0C083C082C000C0BC
:1001800001C002C003C004C005C006C007E50C23BF
:10019000240FF87440C2AF46F6D2AFD200E50CFF90
:1001A00023240FF80F0808BF03047F00780FE63000
:1001B000E4F200E50CC39F5020050C7414250CF8E4
:1001C000E6FDA68108E6AE0CBE020274FFCDF8E89B
:1001D0006D60E008E6C0E080F6E50CD39F4027E5BF
:1001E0000C2415F8E6AE0CBE020274FFFD18E6CD35
:1001F000F8E5816D6006D0E0F61880F5E50C241472
:10020000C8F6150C80D3750D05E50C23240FF87F77
:1002100004C2AFE610E61E30E00310E20C7F0030AF
:05022000E10730E304DA
:100225007F0854F4547CC6D2AF54804207C20022E2
:10023500F6D2AFD007D006D005D004D003D002D077
:1002450001D000D082D083D0F0D0D0D0E0C200223F
:100255007814A68174026006FF0876FFDFFB7F0332
:10026500E4780EF608F608DFFA780F76309000038A
:10027500740193C0E0E493C0E0750D0543890175F1
:0D0285008AF0758CD8D28CD2AFD2A922029B
:0300000002029267
:0C029200787FE4F6D8FD7581520202D995
:10029E00020255E493A3F8E493A34003F68001F21F
:1002AE0008DFF48029E493A3F85407240CC8C33361
:1002BE00C4540F4420C8834004F456800146F6DF30
:1002CE00E4800B010204081020408090031EE47E9F
:1002DE00019360BCA3FF543F30E509541FFEE49325
:1002EE00A360010ECF54C025E060A840B8E493A3EC
:1002FE00FAE493A3F8E493A3C8C582C8CAC583CA17
:10030E00F0A3C8C582C8CAC583CADFE9DEE780BECE
:0103530000A9
:00000001FF
