:10009A0020480AF88CF8F3F95BF9B8FA15FA67FA06
:1000AA00B9FB04FB4BFB90FBCFFC10FC44FC79FC36
:1000BA00ACFCDCFD09FD34FD5CFD82FDA6FDC8FD3E
:1000CA00E8FE06FE22FE3DFE56FE6EFE85FE9AFE06
:0F00DA00AEFEC1FED3FEE4FEF4FF0302080000F9
:10016B005389F0438901758C3C758AB0D2A9D2AF03
:03017B00D28C2201
:10014600D3EF9400EE9400401B7D7C7C00D3EF94AB
:1001560000EE94004007ED1D70F31C80F0EF1F7059
:04016600DF1E80DC3C
:01016A002272
:10011B0012016BC2B70509E5097002050864244595
:10012B00087004F508F5097FF47E01120146C28CB4
:0B013B007F327E00120146D28C80DA79
:03000B000200EA06
:1000EA00C0E0C0D075D000C000C004C005C007B2CF
:1000FA00B7E50925E0240AF8E6FC08E6FDECF58CEC
:10010A00AF058F8AD007D005D004D000D0D0D0E078
:01011A0032B2
:0300000002000EED
:0C000E00787FE4F6D8FD758151020055A2
:10001A0002011BE493A3F8E493A34003F68001F2E0
:10002A0008DFF48029E493A3F85407240CC8C333E7
:10003A00C4540F4420C8834004F456800146F6DFB6
:10004A00E4800B010204081020408090009AE47EAC
:10005A00019360BCA3FF543F30E509541FFEE493AB
:10006A00A360010ECF54C025E060A840B8E493A372
:10007A00FAE493A3F8E493A3C8C582C8CAC583CA9D
:10008A00F0A3C8C582C8CAC583CADFE9DEE780BE55
:0100E9000016
:00000001FF
