:0F00BE000A083F065B4F666D7D077F6F011200DA
:10009A005389F0438906758CFF758AFFD2A9D2AFBE
:0300AA00D28C22D3
:1000AD0074082512F8E6F5A0E512B40A03E4F5127A
:0100BD002220
:0800030012009A1200AD80FB0F
:03000B000200CE22
:0300CE00051232E6
:0300000002000EED
:0C000E00787FE4F6D8FD758112020055E1
:10001A00020003E493A3F8E493A34003F68001F2F9
:10002A0008DFF48029E493A3F85407240CC8C333E7
:10003A00C4540F4420C8834004F456800146F6DFB6
:10004A00E4800B01020408102040809000BEE47E88
:10005A00019360BCA3FF543F30E509541FFEE493AB
:10006A00A360010ECF54C025E060A840B8E493A372
:10007A00FAE493A3F8E493A3C8C582C8CAC583CA9D
:10008A00F0A3C8C582C8CAC583CADFE9DEE780BE55
:0100CD000032
:00000001FF
